:10400000F023002025410000214100002141000053
:1040100000000000000000000000000000000000A0
:10402000000000000000000000000000214100002E
:1040300000000000000000002141000021410000BC
:104040002141000021410000214100006167000082
:10405000DD620000196600002141000021410000DE
:1040600021410000896C0000214100002141000035
:10407000214100000000000000000000416D000030
:1040800021410000214100002141000021410000A8
:10409000214100000000000000000000214100005C
:1040A0002141000021410000214100002141000088
:1040B0000000000010B5064C2378002B07D1054BFB
:1040C000002B02D0044800E000BF0123237010BD84
:1040D000180000200000000044820000084B10B5CA
:1040E000002B03D00749084800E000BF07480368D9
:1040F000002B00D110BD064B002BFBD09847F9E7F1
:10410000000000001C0000204482000044820000E7
:104110000000000010B5014B984710BD4944000055
:10412000FEE70000F8B5234A234B9A4209D0224B00
:10413000204A03E011681960043304321F498B429E
:10414000F8D31F4B02E000221A6004331D4A934249
:10415000F9D31D4AFF211D4B8B439360FD399023FA
:104160005B001B4AD1501B4AD3780325AB43022482
:104170002343D370D3780C27BB4308263343D37033
:10418000154B987B30229043202210439873997BE3
:10419000B943314399739A7BAA4322439A730F4AD6
:1041A000516880230B4353600D4B98470D4B984744
:1041B000FEE7C046448200000000002018000020F6
:1041C00018000020F003002000ED00E00040000097
:1041D0000070004100500041004800410040004193
:1041E000657D00007976000010B5084A93692021AA
:1041F0000B439361064A074B5A80074B98470200CE
:1042000006490748074B984710BDC04600040040C8
:1042100004410000000C00405D67000000140040F5
:104220004C010020055A0000F0B5C64600B5C02379
:10423000DB0598460823424653601F4B1F4A9A628B
:10424000C0210906996243201A5C0124A446A243B6
:1042500001273A43D2B21A5412381A5C0F26324060
:1042600010252A43D2B21A54402240464260144AD2
:104270009A62996246201A5CA2433A43D2B21A5417
:104280003234185D0F2290433843C0B21855713252
:10429000404642600B4A9A6299624722995C6046A6
:1042A00081433943C9B299541A5D32402A43D2B28C
:1042B0001A5504BC9046F0BD00440041080000407F
:1042C0004000004080000040044A116A80235B02E5
:1042D0000B431362024A034B5A80704700040040AC
:1042E0001E400000000C004010B5054B9847054BE0
:1042F0009847002204490548054B984710BDC04621
:10430000C94200002942000000400042E8000020AD
:104310003D550000024AD36904210B43D361704725
:104320000004004010B5034B984703490348044B71
:10433000984710BD1543000000400041CC0000200C
:1043400025570000044A136A04210B431362034AF1
:10435000034B5A807047C0460004004014400000E0
:10436000000C004030B50F4B4422995C0125A94355
:1043700001242143C9B299543220195C353A914342
:1043800003221143C9B2195445215A5CAA4322435E
:10439000D2B25A541A5C36390A4030210A43D2B29A
:1043A0001A5430BD0044004110B582B0064B984706
:1043B000002300931033054A05490648064CA047E0
:1043C000064B984702B010BD454300003400002062
:1043D00000080042FC000020A15C000065430000D2
:1043E00010B50248024B984710BDC04610E000E0EF
:1043F000F9560000044A936910210B439361034A64
:10440000034B5A807047C04600040040034100003F
:10441000000C004010B5064B984748220549012082
:10442000054B98470548064B0360064B984710BD5F
:10443000F5430000F47D0000FD5E0000EC0000206C
:1044400000100040556D000070B5154B9847C02214
:10445000D20580235B0053619360124B124999622D
:10446000C02424069C624825595D0120814359558A
:1044700080210901516191600C4A9A629C624B2132
:104480005A5C82435A540A4B98470A4B98470A4B46
:1044900098470A4B98470A4B98470A4B984770BD74
:1044A000AD620000004400410001004000080040EF
:1044B000E942000025430000A9430000E143000059
:1044C000E941000015440000002801D0FF230375D6
:1044D000704710B5002817D0037D052B01D90023A4
:1044E0000375037D042B01D900230AE05A1C0275D1
:1044F0009B00195008E05A1C940024589B001C5043
:104500001300032BF7DD016110BD000010B500287A
:1045100025D0017DFF2907D0FE2909D005290BD917
:1045200000230375104802E0002303750F4810BDF7
:10453000002303750E48FAE7002912D0012902D0A2
:104540000023002205E00068F1E79C0024581219BE
:1045500001338B42F9DB1000064B9847E7E706482A
:10456000E5E70020E3E7C04683969800819698002F
:1045700082969800BD7700000100FFFF30B500254E
:104580000CE040080133DBB2072B06D8C407F8D58E
:104590004008064C604080B2F4E70135954203DAEA
:1045A0004B5D58400023EFE730BDC04601A0FFFF40
:1045B0000022002305E003210B439BB24000C0B260
:1045C0000132072A08DC9B009BB241B20029F2DBD2
:1045D00001210B439BB2F1E71800704710B5104B57
:1045E00002001A409A4202D0FF23180010BD002199
:1045F000002305E001221343DBB2800080B20131C9
:104600000729F2DC5B00DBB2820B9203C024240298
:10461000A242EFD08024E401A242EED0FF23E4E7DF
:1046200055550000F0B583B0070001914378012B88
:1046300003D80120404203B0F0BD8088234B984747
:10464000FA2802D001204042F5E70126204C0DE077
:1046500064080133DBB2072B06D8E207F8D56008FF
:104660001C4C4440A4B2F4E70136F6B27B789E427B
:1046700017D235007300FB189888144B9847FB2815
:104680000FD07300FB189888104B9847FC2808D06F
:104690006B00FB1898880D4B984780B2444000236C
:1046A000D9E7019B002B0FD07B789E4202D30120DB
:1046B0004042C0E77600BF19B888044B9847FB28F2
:1046C00002D001204042B6E72000B4E7DD450000FB
:1046D000FFFF000001A0FFFF70B5050044787C2CAF
:1046E00010D87D2C01D901200DE0631C4370080017
:1046F000054B984764002C19A0806B8802336B80AF
:10470000012000E0002070BDB145000070B505003B
:104710000C009F290BD9A021064B9847002808D0F0
:1047200021006031C9B22800024B984701E0014BDB
:10473000984770BDD946000010B54378994201D31F
:10474000002010BD490040188088064B98470300A0
:10475000A02805D000209F229A424041C0B2F0E735
:104760000120EEE7DD45000070B504000D000B7878
:104770004278934201D3FF2070BD5A1C0A705B003F
:10478000C31898880B4B9847A02803D09F28F3D9CB
:10479000FF20F1E72B786278934201D3FF20EBE70B
:1047A0005A1C2A705B00E418A088024B98476038B6
:1047B000C0B2E1E7DD450000F8B504000E00151EAB
:1047C0004ED000292DD00978437899422FD2264B1C
:1047D0009847002831D000232B6000273178200033
:1047E000214B9847002833D0310020001F4B9847B9
:1047F0000F2302009A43D3B29F2B24DC2B689A002C
:10480000D21853000209D2B29B182B600F2210401D
:1048100009281FDC9A00D3185A00101828600137A5
:10482000DCE701235B42136002277F4210E0012393
:104830005B42136003277F420AE001235B422B6047
:1048400004277F4204E001235B422B6005277F425F
:104850003800F8BD01235B422B6006277F42F7E753
:1048600001277F42F4E7C04639470000694700004E
:10487000F0B5CE4600B582B001900E00171E9946E5
:1048800028D0002929D00023137009784378994251
:1048900026D2154B9847002801D0002409E00324B4
:1048A000644212E03C1931000198104B9847207087
:1048B0002C00651C4D4505DA317801980A4B984764
:1048C0000028EFD13B1900221A70200002B004BC6E
:1048D0009146F0BD01246442F7E701246442F4E705
:1048E00002246442F1E7C0463947000069470000EE
:1048F000F0B5CE4600B586B001901600234B984720
:10490000002838D0002E1BD01024002C25DD002ECE
:1049100021D0013C1E4B99460A2130009847CDB268
:104920001C4F0A213000B8470A21C8470901C9B203
:10493000294302AB195564213000B8470600E4E76B
:1049400000210198144B9847002801D0012517E059
:1049500003256D4214E0002500E000250F2C0FD840
:104960000135661C02AB195D01980B4B9847002876
:1049700004D03400F2E702256D4201E003256D42C8
:10498000280006B004BC9146F0BDC046D9460000E0
:10499000C9780000BD7700000D47000070B5050024
:1049A000161E14D00B4B984700280DD00024315D03
:1049B000002907D001342800074B98470028F6D17A
:1049C00003246442200070BD02246442FAE70124FB
:1049D0006442F7E7D94600000D470000F0B5C6462F
:1049E00000B582B00190171E98463AD0234B9847E5
:1049F000002801D0002624E0023837E00134E4B278
:104A0000A519A84203DDBA5D7B5D9A42F6D0032C5E
:104A100004D8B95D9F291BD9022C19D9FD21019811
:104A2000164B984700281FD021000198144B984737
:104A300000281FD0B95D0198114B9847002805D078
:104A40002E004046464511DA0124D9E705380DE02D
:104A5000751C01980A4B98470028F1D10620404266
:104A600004E00120404201E00320404202B004BCC7
:104A70009046F0BD04204042F8E7C046D946000009
:104A80000D47000070B584B005004488002C00D1AB
:104A9000E6E0F92C07D9002303704370438000201F
:104AA000DFE0013CA4B2002C12D02A795523134038
:104AB000552B0DD06E88002EF3D0281D013E691DA8
:104AC00032006F4B9847B2B26A8052086A70E8E7CA
:104AD000002C03D10020C4E0013CA4B2012C12D967
:104AE000A888684B9847FA280DD06E88002EF3D01E
:104AF000281D013E691D3200614B9847B2B26A80A1
:104B000052086A70E8E7002C00D1ACE06608E307C1
:104B100000D5AAE0042E00D8A9E001220F236B449F
:104B20001A700F236B441B789AB296421CD95B0013
:104B3000EB189888534B9847FC2815D00F236B44EB
:104B40001B785B00EB1898884E4B9847FF2805D0E0
:104B50000F226A44137801331370E2E700232B70AD
:104B60006B706B8000207CE00F236B441B789E42AF
:104B700000D87EE001220F236B441A7004E00F225C
:104B80006A441378013313700F236B441B789AB275
:104B9000964210D95B00EB1898883A4B9847FB284F
:104BA00009D00F236B441B785B00EB189888354BBA
:104BB0009847FC28E3D10F236B441B789AB29642A6
:104BC00005D800232B706B706B80032049E05B00DD
:104BD000EB1898882B4B9847FB28F2D10F2169449A
:104BE0000B7801330B700023029302AA2800264B96
:104BF0009847002805DC00232B706B706B80032026
:104C00002FE001212800214B9847029B984205D0B4
:104C100000232B706B706B80042022E00F2169440D
:104C200001230B700023019301AA2800164B98471B
:104C3000002805DC00232B706B706B80032010E0D4
:104C4000019A002A17D0124B19680A234B430233EA
:104C50009A4212D000232B706B706B80052000E00D
:104C6000002004B070BD0020FBE70120F9E701201F
:104C7000F7E70120F5E70220F3E70220F1E7C0465D
:104C8000BF7D0000DD450000B9470000254600005B
:104C900080010020F0B5DE4657464E464546E0B559
:104CA0008FB005000C0000230D930B704B704B80F0
:104CB000C24B1A6893009B185A000232FA21200056
:104CC000BF4B98470B21694401230B7001225242CC
:104CD000BC4B1A60BC4A2800BC4B9847002829DD11
:104CE000B94B1B68002B2BD16E88760800239B469E
:104CF0000B236B441B789AB2964200D890E35B007A
:104D0000EB189888B24B9847FC2800D188E30B2217
:104D10006A441378591C11705B00EB189888AC4BEF
:104D200098475F30C3B25E2B00D975E39800A94B5A
:104D30001B589F460822A34B1A600120404290E373
:104D40009E4A1268002ACFD091008A185100023181
:104D50009942C9D009229B4B1A600220404280E34D
:104D60000DAA0B2169442800984B9847002802DDC2
:104D70001322944B1A60984AA1212000904B984727
:104D80000028B5DC06228F4B1A60B1E70222A2216F
:104D900020008B4B98470028AADC0622894B1A601A
:104DA000A6E78E4AA32120008D4B984700289FDA62
:104DB0000622844B1A609BE78A4AA4212000804B7C
:104DC0009847002894DC06227E4B1A6090E7012267
:104DD0007C4B1A608CE701227A4B1A6088E701222B
:104DE000784B1A6084E70122764B1A6080E7012233
:104DF000744B1A607CE70122724B1A6078E70DAAA7
:104E00000B2169442800714B9847002806DD6B4B45
:104E10009B8E032B0FD911226A4B1A60674B9A693C
:104E2000C3212000664B9847002800DD60E706227A
:104E3000644B1A605CE76C486C4B9847002803D0C1
:104E40005E4BDB69984203D812225E4B1A60E5E79D
:104E50005A4B9B699842E1D0584B986101239B467D
:104E6000DCE70DAA0B2169442800584B984700281D
:104E700006DD524B9B8E032B0FD91122514B1A602A
:104E80004E4BDA69C42120004D4B9847002800DDC5
:104E90002EE706224B4B1A602AE75348534B98479C
:104EA000002803D0454B1B6A984203D81222454B79
:104EB0001A60E5E7414BDB699842E1D03F4BD8618E
:104EC00001239B46DCE70DAA0B21694428003F4BD8
:104ED0009847002806DD394B9B8E032B0FD91122F2
:104EE000384B1A60354B1A6AAE212000344B984774
:104EF000002800DDFCE60622324B1A60F8E63A484C
:104F00003A4B9847002803D112222E4B1A60E9E74A
:104F10002A4B1B6A9842E5D0284B186202225A623B
:104F200001239B46DEE70122264B1A60E0E60122C0
:104F3000244B1A60DCE60122224B1A60D8E60122DB
:104F4000204B1A60D4E601221E4B1A60D0E60DAA4F
:104F50000B21694428001D4B9847002802DD1322CD
:104F6000184B1A60174B5A68AC212000144B984715
:104F7000002800DDBCE60622124B1A60B8E60122CA
:104F8000104B1A60B4E60DAA0B21694428000F4BA0
:104F90009847002802DD13220A4B1A601448134B6D
:104FA00098470200AF212000054B9847002800DDFC
:104FB0009EE60622034B1A609AE6C0468001002056
:104FC000F14800000000002044000020B947000024
:104FD000DD450000107E0000030001008C7F000012
:104FE0009D49000006000100C00100200D450000A1
:104FF000D80200200DAA0B2169442800CB4B98470A
:10500000002802DD1322CA4B1A60C94B1A68B0216E
:105010002000C84B9847002804DD01225242C44BAF
:105020001A6065E60622C24B1A6061E60122C04B97
:105030001A605DE6282303AA0B2169442800BE4FAD
:10504000B84700283FDDBD4B9B8E012B0ED01122AF
:10505000B74B1A6003AAB1212000B94B984700282A
:1050600000DB45E60622B24B1A6041E600230D93B1
:10507000002100E0013103AB5A5C002A0CD0130080
:10508000303BDBB2092BF5D80D9B9800C0184300CC
:105090009A18303A0D92EDE7A84B1A680D9B9A4288
:1050A000D8D0A64A1360002323706370638012680F
:1050B00093009B185A000232FA2120009D4B98471A
:1050C00001239B46C6E703AB9E4A1188198092785C
:1050D0009A70022399469C4B1F0016E04B46062B04
:1050E0001AD0964B1868994B9A46390098470A216E
:1050F000974B9847303103AB4A4699540A21380000
:10510000D047070001239C46E1444B46082BE5DDD0
:10511000002203AB5A729DE72F2203AB49465A5433
:10512000F0E710238B4A0432B22120008A4FB8479F
:10513000002800DDDCE506227D4B1A60D8E501225F
:105140007B4B1A60D4E50122794B1A60D0E501222D
:10515000774B1A60CCE50B22754B5A60093A7D4BB0
:105160001A75C5E5754B9A79B5212000714B9847A2
:10517000002800DDBCE506226D4B1A60B8E501226F
:105180006B4B1A60B4E50122694B1A60B0E50DAAB9
:105190000B2169442800654B9847002820DD674BA8
:1051A0009B8E022B19D8654B998F0D9BDAB29142D9
:1051B00016D0022B00D00123604A9387022B09D01E
:1051C0009620C001002301220221644FB847012329
:1051D0009B4605E096208001F4E71122544B1A60AB
:1051E000564B9A8FD5212000524B9847002800DD5E
:1051F0007EE506224E4B1A607AE501224C4B1A607E
:1052000076E501224A4B1A6072E50122484B1A608A
:105210006EE50DAA0B2169442800444B98470028ED
:1052200002DD1322424B1A604D484E4B9847020054
:10523000BD2120003F4B9847002800DD58E506229D
:105240003B4B1A6054E50DAA0B2169442800374BEB
:105250009847002802DD1322354B1A604248414B23
:1052600098470200BE212000324B9847002800DDFD
:105270003EE506222E4B1A603AE501222C4B1A60BD
:1052800036E501222A4B1A6032E50122284B1A60CA
:105290002EE50122264B1A602AE50122244B1A60D2
:1052A00026E50122224B1A6022E50122204B1A60DA
:1052B0001EE50DAA0B21694428001C4B98470028C5
:1052C00002DD13221A4B1A60224B9A69C921200071
:1052D000184B9847002803DD00221E4B9A6107E512
:1052E0000622134B1A60F7E70122114B1A60FFE404
:1052F0000DAA0B21694428000C4B9847002808DDB3
:105300000E4B9A8E6B469B8E9A422FD91122084BD8
:105310001A600A4B9A8ECB212000064B9847002832
:1053200000DDE5E40622024B1A60E1E4B947000023
:1053300000000020F14800007148000080010020BA
:105340009D490000947F0000A0860100BD77000009
:10535000C978000044000020DD490000956F00007E
:10536000C00100200D450000680100209A42D0D005
:10537000484A938601239B46CBE70122464B1A609D
:10538000B6E40122444B1A60B2E40122424B1A6097
:10539000AEE4424AA4212000414B9847002800DD9A
:1053A000A6E406223C4B1A60A2E401223A4B1A60A2
:1053B0009EE40122384B1A609AE40122364B1A60AF
:1053C00096E40122344B1A6092E40122324B1A60B7
:1053D0008EE40122304B1A608AE401222E4B1A60BF
:1053E00086E401222C4B1A6082E401222A4B1A60C7
:1053F0007EE40023019301AA0B2169442800294B74
:105400009847002800DD73E40322234B1A606FE401
:105410001522214B1A606BE402221F4B1A6067E4CD
:105420005B46002B24D1204B9A69002A23D11A4BCA
:105430001A68531C07D0B0212000194B984701224D
:105440005242154B1A6000212000184B9847020069
:10545000FB212000124B9847FC212000144B984759
:1054600004200FB03CBC90469946A246AB46F0BD26
:10547000104B9847D7E7C9212000094B98470028CF
:1054800003DD0022084B9A61D1E70622024B1A6025
:10549000F7E7C04680010020000000200600010060
:1054A000F1480000B94700004400002025460000F4
:1054B000D9460000ED74000010B588B0010020232B
:1054C0006A461948194CA047002829D1184B009A60
:1054D0009A4201D0002024E0019B022B01D0002041
:1054E0001FE0144B069A9A4201D0002019E0124B9B
:1054F000059A9A4201D0002013E080235B00029AB3
:105500009A4201D000200CE0FE23DB00039A9A426D
:1055100001D0002005E0049B402B02D1012000E0D7
:10552000002008B010BDC046CC000020715700001C
:1055300078563412214365870600010070B50400D7
:105540000D0000280DD0002909D00120392206497C
:10555000064B984729002000054B984770BD002056
:10556000F4E70020F2E7C046987F0000FD5E0000EF
:10557000AD61000070B504000D00431E9841C0B23B
:105580004E220449044B984729002000034B9847BA
:10559000002070BD987F0000FD5E0000E561000006
:1055A00070B504000D00431E9841C0B25922044951
:1055B000044B984729002000034B9847002070BDFA
:1055C000987F0000FD5E0000F3610000F8B5CE4654
:1055D000474680B506000D009046994600281AD02F
:1055E000002A1AD04B46002B19D1002067221C49F3
:1055F0001C4FB847340030001B4B98470100060091
:1056000048461A4B984748424841C0B2692214495B
:10561000B847002709E00020E8E70020E6E701207E
:10562000E4E7BF19BFB2B94515D92000104B984720
:10563000290020000F4B98470028F9D029002000AE
:105640000D4B98474346D855012EEAD97B1C000ADA
:105650004246D054E5E738000CBC90469946F8BD68
:10566000987F0000FD5E0000FF6100009D7A000051
:10567000256200001B6200003962000070B5040062
:105680000D00431E9841C0B282220449044B984742
:1056900029002000034B9847002070BD987F000030
:1056A000FD5E000047620000F8B504000D00160022
:1056B0001F00431E9841C0B299220549054B9847E7
:1056C0003B00320029002000034CA0470020F8BD19
:1056D000987F0000FD5E000059620000EFF3108328
:1056E000036072B6BFF35F8F7047BFF35F8F0368CD
:1056F00083F310887047000010B5024B1860024B0E
:10570000984710BD60000020056D000010B543698A
:10571000002B00D0984710BD10B58369002B00D036
:10572000984710BD70B504000D00002813D0002963
:105730000FD0012038220949094B98472900200041
:10574000084B9847002803D1074B2360074B636041
:1057500070BD0020EEE70020ECE7C046B47F0000FB
:10576000FD5E0000716400000D5700001957000035
:10577000F0B5C64600B504000E0015001F00002855
:1057800020D0002A20D0002B20D1002056221349FF
:10579000134B98472000134B984780462000124B2C
:1057A000984743465843B04212D3BB19984212D38C
:1057B0003B002A00310020000C4CA047002004BC14
:1057C0009046F0BD0020E1E70020DFE70120DDE7A3
:1057D0000E204042F3E70E204042F0E7B47F000085
:1057E000FD5E0000D1640000D5640000DB640000B1
:1057F000F0B5C64600B504000D0016001F000028D5
:1058000026D0002A26D0002B26D100206A22184953
:10581000184B98472000184B984780462000174B9C
:10582000984743465843A84218D37B19984218D347
:1058300029002000124B9847002815D13B00320068
:10584000290020000F4CA047002004BC9046F0BD6A
:105850000020DBE70020D9E70120D7E70E204042F7
:10586000F3E70E204042F0E711204042EDE7C0464A
:10587000B47F0000FD5E0000D1640000D56400002C
:10588000016600002965000010B50400431E984120
:10589000C0B2F7220349044B98472000034B9847B6
:1058A00010BDC046B47F0000FD5E0000D164000062
:1058B00010B50400431E9841C0B280225200034933
:1058C000034B98472000034B984710BDB47F00005E
:1058D000FD5E0000D564000070B504000D001600E8
:1058E00000280ED000290AD0012034220649074B97
:1058F00098472368320029002000984770BD002097
:10590000F3E70020F1E7C046CC7F0000FD5E000019
:1059100070B504000D00160000280ED000290AD032
:1059200001203D220649074B984763683200290051
:105930002000984770BD0020F3E70020F1E7C04643
:10594000CC7F0000FD5E0000F8B50668002E02D096
:10595000330000250CE0104B984718E09F68BC46C8
:105960006444A41A01348F68BC420BD21D001B682A
:10597000002B07D05C689442F0D8A41A9F68BC46FC
:105980006444F0E7B34203D02800044B9847F8BDC5
:10599000014B9847FBE7C0461D5F0000495F0000D0
:1059A000F8B50500446903695E1C0661037EDB07E8
:1059B00002D4037E9B070AD52B7E02221343DBB25F
:1059C0002B76F8BD6F69E368200098473C00002CF7
:1059D000F7D06368F31AA2689342F2D32F0014370A
:1059E0003800064B9847237C012BEBD166603200D0
:1059F00021003800024B9847E4E7C046515F0000A1
:105A00004959000070B504000D00002812D000298B
:105A10000ED001203B220849084B9847290020005E
:105A2000074B984700232361064B2360002070BD7D
:105A30000020EFE70020EDE7E07F0000FD5E0000C2
:105A400095660000A159000010B50400431E98415E
:105A5000C0B253220749084B98472000074B98478C
:105A6000002804D12000064B9847002010BD1120CB
:105A70004042FBE7E07F0000FD5E00004967000058
:105A8000F166000070B582B004000D00002826D039
:105A9000002922D001207A221F49204B9847237EDB
:105AA00001221343DBB2237626001436290030008E
:105AB0001B4B9847002814D123696B602269290089
:105AC0003000184B9847237E012293432376237E90
:105AD0009B0712D4002002B070BD0020DBE700203D
:105AE000D9E7237E0122934323767E320A490020A0
:105AF0000A4B984712204042EDE701A80A4B98470D
:105B0000237E0222934323762000084B984701A866
:105B1000074B98470020DEE7E07F0000FD5E0000B5
:105B2000055F000049590000DD5600005B6700007A
:105B3000EB56000010B5083800230363436A002BBE
:105B400000D0984710BD10B5083800230363C36A1E
:105B5000002B00D0984710BD10B504002C30044B2A
:105B60009847236A083C002B01D02000984710BDBD
:105B7000FD5F000070B504000E00150000281DD068
:105B800000291DD0002A1DD100203C22FF321049DF
:105B9000104B98474423E25A0833E35A9A4213D1F0
:105BA000A6644C23E5520022083BE252433B2363A8
:105BB00020000830084B9847280070BD0020E4E71B
:105BC0000020E2E70120E0E71C204042F5E7C04664
:105BD000F87F0000FD5E0000016C000070B504005D
:105BE0000200083A4423D35A4C21525A93420DD012
:105BF0000200016C083A5D1C44201552C95C20006B
:105C0000044B98472000044B984770BD034B9847BE
:105C1000FBE7C046F96B0000016C0000096C000056
:105C2000F0B585B004000D001600002817D000293B
:105C300017D0002A17D10020AC2252001249134B72
:105C4000984703A8124B9847343420000194114B15
:105C50009847070003A8104B984700240BE000204A
:105C6000EAE70020E8E70120E6E70134A4B269187A
:105C700001980A4B98472100A74201D9B442F4D3B6
:105C8000200005B0F0BDC046F87F0000FD5E0000BA
:105C9000DD5600003D600000EB560000B15F0000E3
:105CA000F8B504000D0016001F00002826D00029BA
:105CB00026D0002A26D0002B26D100203A221549D2
:105CC000154B9847200034303A003100134B984769
:105CD00000281BD1200008302900114B98470028CC
:105CE0000BD1104B6360104B2360104BA360104B23
:105CF000E360104B2361104B6361F8BD0020DDE7CA
:105D00000020DBE70020D9E70120D7E70D20404243
:105D1000F3E7C046F87F0000FD5E0000655F00000D
:105D2000096B0000215C0000755B0000DD5B00007A
:105D3000595B0000355B0000475B000010B50400B4
:105D4000431E9841C0B261220449054B9847200088
:105D50000830044B9847002010BDC046F87F000073
:105D6000FD5E0000956B000010B50400431E9841D5
:105D7000C0B26C220449054B984720000830044B00
:105D80009847002010BDC046F87F0000FD5E00006F
:105D9000A76B000070B505000E001400431E98416B
:105DA000C0B283221649174B9847012E11D0002EFE
:105DB00004D0022E18D00D20404209E0AC62621ED1
:105DC0009441E2B22800083001210F4B984700208F
:105DD00070BD6C62621E9441E2B22800083002215C
:105DE000094B98470020F3E7EC62621E9441E2B24F
:105DF000280008300321044B98470020E8E7C046FC
:105E0000F87F0000FD5E0000116C000070B504001A
:105E10000D00431E9841C0B2AA220549054B984780
:105E2000200008302900044B9847002070BDC04670
:105E3000F87F0000FD5E0000B96B000070B5040043
:105E40000D00431E9841C0B2CB220549054B98472F
:105E5000200008302900044B9847002070BDC04640
:105E6000F87F0000FD5E0000C96B000070B5040003
:105E70000D00431E9841C0B2D6220549054B9847F4
:105E8000200008302900044B9847002070BDC04610
:105E9000F87F0000FD5E0000D96B000070B50400C3
:105EA0000D00431E9841C0B2E1220549054B9847B9
:105EB000200008302900044B9847002070BDC046E0
:105EC000F87F0000FD5E0000E96B000010B50400E3
:105ED000431E9841C0B20222FF320549054B984744
:105EE00020003430044B9847431E984110BDC046F3
:105EF000F87F0000FD5E00003D600000002800D13A
:105F000000BE70470368002B03D08B4203D01B6890
:105F1000F9E7002070470120FCE7000070B504009D
:105F20000D00064B984701235840C0B2392204495E
:105F3000044B984723682B60256070BD055F000007
:105F400018800000FD5E000003680B600160704770
:105F50000368002B03D01A68026018007047002005
:105F6000FCE7000070B504000E001500002812D0F8
:105F7000002912D0002A12D1002028220A490B4BF6
:105F800098476B1E2B420CD163600023A360E36033
:105F90002660002070BD0020EFE70020EDE7012023
:105FA000EBE70D204042F5E738800000FD5E000081
:105FB00070B504000D00002816D0002912D0012071
:105FC00040220C490C4B9847A368E2689A420DD0D6
:105FD000626813402268D35C2B70A3680133A3600E
:105FE000002070BD0020EBE70020E9E70A204042D6
:105FF000F7E7C04638800000FD5E000070B5040081
:106000000D00431E9841C0B251220A490A4B9847DD
:106010006368E26813402268D554E368A2689A1A5C
:1060200061688A4201D9591AA1600133E3600020F6
:1060300070BDC04638800000FD5E000010B5040051
:10604000431E9841C0B267220349044B9847E06859
:10605000A368C01A10BDC04638800000FD5E000075
:106060000020704710B50B4B984702000020002815
:1060700006D07F2208490020084B9847002010BD19
:10608000C3001B1A9900064BCB5C9A42F7D0013033
:10609000C0B2ECE76160000078800000FD5E0000A7
:1060A0005C80000070B504000D003A4BC0184342FC
:1060B0005841C0B294223849384B9847384B1A6837
:1060C000D2081202E023DB001A4036490B68496807
:1060D0004901DB0E0B43FF210B401A43637EDB09B2
:1060E000FCD123789B0704D500232370637EDB0952
:1060F000FCD101232370637EDB09FCD12285EA00F9
:10610000521B9100284B5B189A786270DA78A27063
:106110001A79E2701A7C2275DA8AA2841A8BE284D8
:10612000997E2A22A154DB88A380637EDB09FCD1FF
:10613000EB005B1B9A001C4B9B18DB682361637EA2
:10614000DB09FCD1EB005B1B9A00174B9B181B7AF9
:106150002372637EDB09FCD1EB005B1B9A00124BC0
:106160009B185B8AA383637EDB09FCD1EB005B1B7E
:106170009A000D4B9B189B8A2384637EDB09FCD11C
:10618000EB005D1BAA00084B9B185B782370002076
:1061900070BDC04600C0FFBD78800000FD5E0000FD
:1061A00024608000206080005C80000070B50500E5
:1061B0000C00431E9841C0B2C5220649064B9847C1
:1061C0002C602000054B984701002000044B9847A5
:1061D00070BDC04678800000FD5E00006560000074
:1061E000A56000000268137802210B43DBB2137034
:1061F00070470268137802218B431370704702685E
:10620000537EDB09FCD19288120903331340032B20
:1062100001D0022070470120FCE70368187E0123AB
:10622000184070470268137B02210B43DBB21373E3
:10623000537EDB09FCD170470268537EDB09FCD139
:10624000508B80B27047006843780F22934311400F
:10625000194341707047000030B5046823691F2559
:10626000AB43294019432161637EDB09FCD10168FE
:106270000B69064803401202F820400102401A430D
:106280000A614B7EDB09FCD130BDC046FFE0FFFF59
:10629000BFF34F8F034A044BDA60BFF34F8FC04602
:1062A000FDE7C0460400FA0500ED00E010B5064B1E
:1062B0005A685A60054B9847054B9847054B9847D5
:1062C000FF20054B984710BD004000415966000073
:1062D0009D6C0000E16C00009563000070B582B019
:1062E000264B1A69D9680A400192019A1A61244B17
:1062F0001868431E9841C0B2D2222249224B9847C7
:1063000001256D422EE00139CEB2B0420ED83218CE
:106310005210D1B2FF231340DB001C4A9B5CA34206
:1063200003D0F0DA0131C8B2EFE716256B1C03D0B9
:10633000134B1B68280098470122A240019B9343FE
:1063400001930198124B9847013844B2631C02D064
:1063500001260020D9E7094B1A69D9680A40019241
:10636000019A1A61019B002B05D00198084B9847B0
:10637000013844B2EAE702B070BDC04600180040E0
:106380006400002098800000FD5E00009080000006
:106390003D7B0000C3070AD50B4B802252009A6058
:1063A0008C2292035A60084B5B78DB09FBD1830790
:1063B00009D5054B0222FF329A60044A5A60024B0B
:1063C0005B78DB09FBD17047000C00400103030040
:1063D000037DDB07FCD52023FF3303834908C1611C
:1063E000024B1A4392B202807047C04600A5FFFFDD
:1063F000F8B504000F0016001D00012008404342BC
:106400005841C0B2C52252001549164B9847790829
:10641000237DDB07FCD5144B2380237DDB07FCD5D4
:106420002023FF3323830A00002304E05700388031
:1064300002339BB20132AB4208D2F75CB8B23E2BBA
:10644000F4D8F018407800023843EFE7237DDB07EB
:10645000FCD5E161054B069A13439BB22380F8BD3E
:10646000B0800000FD5E000044A5FFFF00A5FFFF17
:1064700070B505000C0000281CD0104B99421BD0B1
:10648000002046220E490F4B98472C6162689E23DC
:10649000134063600C4B1D600C4B202280215A502E
:1064A000BFF34F8FBFF36F8F0131FF315A501A6026
:1064B000002070BD0020E4E70120E2E70040004139
:1064C000B0800000FD5E00006800002000E100E0F8
:1064D0004020704780204001704770B54C08056926
:1064E0002E7DF607FBD52020FF302883C80707D56F
:1064F0000134012081430988090A1170012103E058
:10650000002101E002312C0099420BD2651C64008D
:10651000208880B250545C1EA142F3D24C1C000A69
:106520001055EFE770BD0000F0B5DE4657464E4609
:106530004546E0B5C5B0814616001D000C0048E098
:106540005346990104AB5A18414440234846294F09
:10655000B84701239C46E2445346032BF0D94346F7
:10656000E31A99093F22134002E001340136013D4C
:10657000039A94420DD8002D0BD030788A0104AFD5
:10658000BC466244D05401333F221340EDD1013167
:10659000EBE7022241464B461869174B9847002308
:1065A0009A460EE05346990104AB5A18414404231D
:1065B00000933C3348460069104FB84701239C467E
:1065C000E2445346032BEDD92B19013B039A9A421F
:1065D00009D2FF2322009A4390461700FF37039702
:1065E00000239A46B8E745B03CBC90469946A2467F
:1065F000AB46F0BDDB640000D1630000F163000036
:10660000890B02690904090C01238B40108C184086
:1066100043425841C0B2704710B50A4B186803692D
:106620001A7DD20704D50368002B00D0984710BD0F
:106630001A7D9207FBD502221A754368002BF6D00B
:106640009847F4E7680000203823024AD05CC0B2C3
:106650007047C04600040040064B1A7AD2B21A7244
:106660005A7AD2B25A729A7AD2B29A72DA7AD2B28A
:10667000DA7270470004004010B50400C3681B7A4A
:10668000DB0706D50368002B00D09847E36801229A
:106690001A7210BD70B504000D00431E9841C0B2BF
:1066A00033221049104B9847E56001232B80AB7AC9
:1066B000DB09FCD1E268937ADB09FCD180331380DB
:1066C000937ADB09FCD1E268936920239361937A82
:1066D000DB09FCD10133E268D371044B1C6000205C
:1066E00070BDC046D0800000FD5E00006C00002040
:1066F00010B5041E20D0C368002B1BD001206A22D5
:106700000E490F4B984708220E4B1A60E268136936
:1067100000231361937ADB09FCD1E268937ADB09E9
:10672000FCD1138802210B439BB21380937ADB09BF
:10673000FCD110BD0020E2E70020E0E7D08000009F
:10674000FD5E000000E100E0C268937ADB09FCD145
:1067500013885B080120184070477047002070477D
:1067600010B5024B1868024B984710BD6C00002012
:1067700079660000024B9C466044800AC0B27047B4
:1067800000F8FFBD10B58469237EDB0702D5A37D29
:10679000DB070FD4237E9B0702D5A37D9B070ED476
:1067A000237E5B0715D5628B37231A420CD0083342
:1067B000638310BD0123237503689847F9E702231B
:1067C000237583689847F4E74368218DC9B29847D9
:1067D000EFE7237EDB09ECD080232376C36898475C
:1067E000638B9BB26383E4E7034B984200D070470E
:1067F000024B1960FBE7C046000800427000002011
:1068000010B5024B98470930C0B210BD7567000043
:1068100010B50B4B984702000020002806D0094A0B
:1068200009490020094B9847002010BD83001B1820
:106830009900074BCB5C9A42F7D00130C0B2ECE72D
:10684000756700005E02000038810000FD5E0000F8
:10685000E880000070B50400384B9847E369DB0717
:106860001DD483001B189A00354B9B185A681C23B3
:106870001A40E3699B07FCD123689B0709D523686D
:1068800002218B432360E3699B07FCD1E3699B07EB
:10689000FCD4012313432360E3699B07FCD1E36924
:1068A000DB07FCD483001B189A00254B9B185B6800
:1068B0002360E3699B07FCD183001B189A00204BDF
:1068C0009B189B686360E3695B07FCD183001B181E
:1068D0009A001B4B9B185B689A040BD4C022D20110
:1068E000134207D183001B189A00154B9B189B89F4
:1068F000A38115E083001B189A00114989188A8921
:10690000A389D204D20C5B0B5B031343A3818B7B63
:1069100007221A40A3895203DB04DB0C1343A38133
:10692000074A83001D18A9000D005118C97BA173E7
:106930005219127C3023E254002070BD116800000F
:10694000E880000070B582B004000D00E3699B0789
:10695000FCD12668760801231E4023680222934357
:106960002360E3699B07FCD101A80A4B9847E369C0
:106970009B07FCD4ADB2A58101A8074B98472368BB
:1069800002229343760033432360E3699B07FCD1E3
:1069900002B070BDDD560000EB56000070B582B04D
:1069A00004000D00E3699B07FCD1266876080123EB
:1069B0001E402368022293432360E3699B07FCD1B6
:1069C00001A8184B9847E3699B07FCD4022D21D0FE
:1069D000226880235B0413432360E3695B07FCD1D7
:1069E0006B1E9D41EDB263680F4A13406D031D435A
:1069F0006560E3695B07FCD101A80C4B98472368ED
:106A00000222934376001E432660E3699B07FCD174
:106A100002B070BD2368064A13402360E3695B0738
:106A2000FCD1DDE7DD560000FFDFFFFFEB56000085
:106A3000FFFFFFFE70B582B004000D00E3699B0705
:106A4000FCD12668760801231E4023680222934366
:106A50002360E3699B07FCD101A80F4B9847E369CA
:106A60009B07FCD46B1E9D41EDB2636840229343AB
:106A7000AD011D436560E3695B07FCD101A8074BCD
:106A8000984723680222934376001E432660E369F9
:106A90009B07FCD102B070BDDD560000EB56000034
:106AA00070B582B004000E00E3699B07FCD1256835
:106AB0006D0801231D402368022293432360E3698C
:106AC0009B07FCD101A80E4B9847E3699B07FCD4B8
:106AD000616807239943334019436160E3695B07A9
:106AE000FCD101A8074B9847002D06D0236802224D
:106AF00013432360E3699B07FCD102B070BDC0461D
:106B0000DD560000EB56000070B506000C00431E79
:106B10009841C0B2C4221949194B98472000194B1B
:106B20009847051E01D0280070BDB46131002000D7
:106B3000154B98472000154B984743B2002B0ADBB2
:106B40001F21014001228A408021114C6250BFF375
:106B50004F8FBFF36F8F002B07DB1F2101400122F6
:106B60008A40C02149000A4C6250002BDBDB1F2306
:106B700018401E3B8340064A1360D4E7388100006A
:106B8000FD5E000055680000E96700000168000034
:106B900000E100E08269136802210B431360D369AE
:106BA0009B07FCD170478269136802218B431360F5
:106BB000D3699B07FCD1704710B58069014B98479A
:106BC00010BDC0464569000010B58069014B98476B
:106BD00010BDC0469D69000010B58069014B984703
:106BE00010BDC046356A000010B58069014B98475A
:106BF00010BDC046A16A0000836989B2198570473B
:106C0000836901229A757047836902229A757047D9
:106C100070B504000D001600431E9841C0B2174A1B
:106C20001749184B9847002D0BD0022D09D0012D84
:106C300018D0032D0FD1A369002E1CD080229A7585
:106C400009E0A369002E07D101221A75A369002E5D
:106C500005D102221A7570BD01229A75F6E702224B
:106C60009A75F8E7A369002E02D104221A75F2E79B
:106C700004229A75EFE780221A75ECE71E020000E5
:106C800038810000FD5E000010B5024B1868024B11
:106C9000984710BD70000020856700000E4A116AF9
:106CA000090C136A9B0F9B0709040C4801400B4316
:106CB00002210B43136293690B439361137F1D31D0
:106CC0000B401377044BDB681B07FBD5024A136AA2
:106CD00080210B4313627047000800400000FF0F43
:106CE000024A936902218B43936170470008004078
:106CF000024B034A5A6005221A60704710E000E018
:106D0000FFFFFF0010B5014B984710BDF16C00006C
:106D100070B505000469E36ADB0705D50123E3626A
:106D20000368002B00D09847A36A1B0706D50823E9
:106D3000E3626B68002B01D02800984770BD00000B
:106D400010B5024B1868024B984710BD7400002024
:106D5000116D000010B5041E27D00368002B22D04F
:106D600001204F221549164B98472268D379DB0939
:106D7000FCD11378DB091AD1D379DB09FCD1137864
:106D80009B0717D4137804218B431370D379DB0945
:106D9000FCD1226853780F218B435370D379DB09E0
:106DA000FCD1002010BD0020DBE70020D9E7112036
:106DB0004042F7E711204042F4E7C046548100000A
:106DC000FD5E000070B506000D001400002838D0EC
:106DD0000368002B33D0012079223E493E4B98476F
:106DE0003668F379DB09FCD13378DB0900D068E041
:106DF000F379DB09FCD133789B0765D42A000023A3
:106E000020000021354CA047002960D1FA239B02C5
:106E100098424AD017D9FA235B03984249D02BD91C
:106E2000FA23DB03984248D0FA231B04984246D049
:106E3000FA239B0398423ED00D20404230E00020D0
:106E4000CAE70020C8E7FA23DB01984229D009D815
:106E5000FA235B01984219D0FA239B019842EBD1A7
:106E6000012114E0FA231B0298421CD0FA235B0292
:106E70009842E1D104210AE0FA23DB02984216D0BD
:106E8000FA231B039842D7D1072100E00021737831
:106E90000F2293430B437370F379DB09FCD100207D
:106EA00070BD0221F3E70321F1E70521EFE7062199
:106EB000EDE70821EBE70921E9E70A21E7E70B21E4
:106EC000E5E711204042EBE711204042E8E70D20C2
:106ED0004042E5E754810000FD5E0000E97A0000D1
:106EE00010B5041E14D00368002B0FD00120FA2225
:106EF0000849094B98472268137802210B43DBB2FB
:106F00001370D379DB09FCD1002010BD0020EEE71F
:106F10000020ECE754810000FD5E000010B5041E67
:106F200012D00368002B0DD001208C22520007499B
:106F3000074B98472268A5231372D379DB09FCD14C
:106F4000002010BD0020F0E70020EEE75481000093
:106F5000FD5E0000044B1B78022B00D0704703221B
:106F6000014B1A70FAE7C04678000020034B1B78EB
:106F7000052B01D0014B1B787047C04678000020DC
:106F800072B6034A53680133536062B67047C04615
:106F900078000020F0B583B005000F000092019347
:106FA000154C164A01212000154EB047154A002104
:106FB0002000B047144A02212000B04739002000C9
:106FC000124B984700992000114B984701992000D7
:106FD000104B9847290B28050F4A00230F4DA8474F
:106FE00080214902091A20000D4B984720000D4BC3
:106FF000984703B0F0BDC046FC000020556F00006C
:10700000955D0000357000006D6F00003D5E000072
:107010006D5E00009D5E000000127A00A97A0000FB
:107020000D5E00003D5D0000014B58687047C04692
:107030007800002000B583B01748184B9847002807
:1070400028D06B46D91D00230B7001221248144B27
:1070500098470128F0D1134B1B78042B16D0114B05
:107060001B78052BE8D1104B5B88FB2BE4D80E4A2C
:10707000591C51800432694607310978D1540B4BB1
:107080009847084B986001221A73D5E70522054BF3
:107090001A70E4E703B000BDFC000020CD5E0000E4
:1070A0001159000078000020D8010020297000004C
:1070B00010B50400014B9847001B10BD297000005B
:1070C00010B5524B1B78DBB2052B00D98BE09B002F
:1070D0004F4AD3589F464D4B98684E4B984731289E
:1070E00022D94D494A8804314C484D4B9847474C6A
:1070F000022323704B4B9847A06015E0434B9868E0
:10710000444B9847F423FF3398420DD93F4CF13B51
:10711000FF3B2370434B9847A06005E03B4C0023A6
:107120002370404B9847A06010BD3F4B1B78022B4B
:107130000AD03E4B1B78002BF6D0344C0023237032
:10714000384B9847A060EFE73448394B984772B600
:10715000102238493848394B9847394B9847E8E767
:107160002A4B98682B4B984718281FD82F4B1B7811
:10717000002B1BD1254B1B7B002BD5D00022234B92
:107180001A732A4A53885B08DBB25370032BCBD99E
:1071900010002C4B984702280FD00328C4D11B4C59
:1071A000002323701F4B9847A060BDE7174C0023B6
:1071B00023701C4B9847A060B6E7174C21001B4872
:1071C000214B98476378002B06D0104C0123237085
:1071D000144B9847A060A7E70C4C00232370114B79
:1071E0009847A060A0E7094C042323700D4B9847F3
:1071F000A06000232373084A1370537053800B4A16
:1072000000211170517053808EE7C0467800002035
:107210006C810000B1700000F0020020FC00002032
:10722000D95800002970000058000020D801002023
:10723000695D0000EC810000007F0020AD7D000052
:1072400091620000854A0000954C000010B5084985
:1072500001238B61074ACA6120228B541031064CEE
:107260002000064B98472000054B984710BDC046AC
:1072700078000020816F00004C010020855A00003A
:10728000495A0000F8B504000E001700154B1B7892
:10729000834214D0134B1870134D00212800134B58
:1072A000984739002800124B9847002332002100EC
:1072B0002800104CA047002128000F4B984724239A
:1072C0000E4AD35C012B00D0F8BD140026320133E6
:1072D000002105480A4DA84702222423E254094B05
:1072E0009847F1E708000020E8000020A1550000C1
:1072F0007D560000A956000075550000780000205A
:10730000CD5500002970000070B52423654AD35C78
:10731000DBB2002B08D0022B32D000212423614A9B
:10732000D154614B984770BD5E4B1B78042BFAD14A
:107330005C4B986A5D4B9847F928F4D95A4DA84799
:10734000584CA06201222423E254A8470023E362A0
:107350003022A354564B5B78042B08D12F3A544B60
:107360005A70002218211820524B9847DBE704225C
:107370004F4B5A70033A192107204E4B9847D2E7DA
:10738000484BD88C002818D0464A3021535C013332
:10739000DBB25354D16A8C466044D062022B13D9BD
:1073A000434B5B78012B24D0042B34D000212423C1
:1073B0003C4AD1543C4B9847B5E700212423394A35
:1073C000D154394B9847AEE701212423D154364B91
:1073D0009847374B5B78012B05D1002218211820E4
:1073E000344B98479FE7012219210720314B9847DA
:1073F00099E7314B58433149314B9847314BC318CA
:10740000642058431821304B9847304BC1183048FE
:10741000304B9847CAE7304B58432849284B984788
:1074200001002E4C20002B4B984720002C4B9847F6
:107430002C4B5C6AE207121B5300FA22920094461E
:107440006344984202D2FA23DB00181A254DEB69F7
:10745000AA69991849082D6A5B195B086432904241
:1074600003D90A22204B1A60A0E76218904203D980
:1074700007221D4B1A6099E7091B884208D31A4B53
:107480001B68063B012B91D90722174B1A608DE729
:10749000984203D30622144B1A6087E70822124B46
:1074A0001A6083E77800002029700000B1700000A6
:1074B000080000208572000010270000FD2F00004A
:1074C000BD770000F2E5FFFFD1780000C40900009D
:1074D000D8020020D3440000B5080000C0010020FD
:1074E0000D450000800100200400002070B50D4D06
:1074F0003E2229000C480D4B9847E8870C4C200091
:107500000C4B9847060020000B4B9847411E7143D7
:1075100040232A002000094CA047002800D0FEE7A5
:1075200070BDC04680010020FFFF00007D450000C7
:10753000CC00002089580000B1580000F15700002D
:1075400070B5184C2000184B984705002000174BC9
:107550009847411E69434023154A2000154CA04717
:10756000002800D0FEE7124C3E2221001248134BA7
:107570009847E38F984213D00D4C4022FF21200002
:107580000F4B98477B2323607A3BA3860D4BA36167
:107590000D4BE361073B2362022363620B4B984769
:1075A00070BDC046CC00002089580000B1580000D2
:1075B0008001002071570000FFFF00007D450000A2
:1075C000E37D00007E040000F7030000ED7400007E
:1075D00010B5074B1B68002B08D00120A9220549D4
:1075E000054B98470248054B984710BD0020F5E72A
:1075F000EC000020F47D0000FD5E00001D6F000027
:1076000010B5174B1B68002B23D001206F221549A2
:10761000154B9847124CFA22802109022000134B87
:1076200098472368002B16D001208C220D490E4B61
:1076300098470B4C20000E4B98472368002B0CD02A
:107640000120A9220749084B98470548094B98474C
:1076500010BD0020DAE70020E7E70020F1E7C04690
:10766000EC000020F47D0000FD5E0000C56D000010
:10767000E16E00001D6F000070B52F4B984772B689
:107680002E4B2F4A5A602F4898602F4B984700285E
:1076900049D010222D492E482E4B98472E4B984703
:1076A00009222E4B1A602E4B98472E4B18702E4BEA
:1076B0001A682E4B1A602E4A12685A602D4A1268B8
:1076C0009A602D4A1268DA6080256D002A00002138
:1076D0002A482B4CA0472A0000212A48A0472A48C4
:1076E0002A4CA0472A48A0472A48A0472A4B984737
:1076F0002A4B98472A4B9B8F022B1AD09620C00109
:10770000002301220221274CA047274A136C0221A3
:107710000B43136462B6254B9847254CA047254B75
:107720009847A047F7E7102223490948094B984793
:10773000B4E796208001E3E715410000080000202F
:1077400000FE010000FD0100B9540000FC810000B2
:10775000007F0020AD7D00000176000004000020C5
:10776000496600005C0000200CA08000480000205A
:1077700040A0800044A0800048A08000F0020020CB
:10778000E37D0000D8010020C0010020C9440000B2
:10779000D8020020680100204D72000041750000F1
:1077A00080010020956F000000080040C1700000BB
:1077B000D1750000097300000C820000002243080C
:1077C0008B4274D303098B425FD3030A8B4244D3A9
:1077D000030B8B4228D3030C8B420DD3FF220902EB
:1077E00012BA030C8B4202D31212090265D0030BAA
:1077F0008B4219D300E0090AC30B8B4201D3CB03A0
:10780000C01A5241830B8B4201D38B03C01A5241E1
:10781000430B8B4201D34B03C01A5241030B8B42E3
:1078200001D30B03C01A5241C30A8B4201D3CB02CE
:10783000C01A5241830A8B4201D38B02C01A5241B3
:10784000430A8B4201D34B02C01A5241030A8B42B6
:1078500001D30B02C01A5241CDD2C3098B4201D3CE
:10786000CB01C01A524183098B4201D38B01C01A4C
:10787000524143098B4201D34B01C01A52410309C3
:107880008B4201D30B01C01A5241C3088B4201D372
:10789000CB00C01A524183088B4201D38B00C01A1F
:1078A000524143088B4201D34B00C01A5241411A46
:1078B00000D20146524110467047FFE701B5002053
:1078C00000F0F0F802BDC0460029F7D076E7704717
:1078D00003460B437FD4002243088B4274D3030931
:1078E0008B425FD3030A8B4244D3030B8B4228D3D2
:1078F000030C8B420DD3FF22090212BA030C8B42F8
:1079000002D31212090265D0030B8B4219D300E097
:10791000090AC30B8B4201D3CB03C01A5241830B1C
:107920008B4201D38B03C01A5241430B8B4201D3CC
:107930004B03C01A5241030B8B4201D30B03C01AF5
:107940005241C30A8B4201D3CB02C01A5241830A6F
:107950008B4201D38B02C01A5241430A8B4201D39E
:107960004B02C01A5241030A8B4201D30B02C01AC8
:107970005241CDD2C3098B4201D3CB01C01A52412F
:1079800083098B4201D38B01C01A524143098B42B8
:1079900001D34B01C01A524103098B4201D30B01A1
:1079A000C01A5241C3088B4201D3CB00C01A5241C6
:1079B00083088B4201D38B00C01A524143088B428B
:1079C00001D34B00C01A5241411A00D20146524124
:1079D000104670475DE0CA0F00D04942031000D343
:1079E0004042534000229C4603098B422DD3030A98
:1079F0008B4212D3FC22890112BA030A8B420CD3A8
:107A0000890192118B4208D3890192118B4204D3D0
:107A100089013AD0921100E08909C3098B4201D350
:107A2000CB01C01A524183098B4201D38B01C01A8A
:107A3000524143098B4201D34B01C01A5241030901
:107A40008B4201D30B01C01A5241C3088B4201D3B0
:107A5000CB00C01A524183088B4201D38B00C01A5D
:107A60005241D9D243088B4201D34B00C01A524134
:107A7000411A00D20146634652415B10104601D3C1
:107A80004042002B00D54942704763465B1000D34B
:107A9000404201B5002000F005F802BD0029F8D0F1
:107AA00016E770477047C046002B11D1002A0FD14E
:107AB000002900D1002802D00021C943081C07B4C6
:107AC000024802A14018029003BDC046D9FFFFFF43
:107AD00003B4684601B5029800F03AF8019B9E464F
:107AE00002B00CBC7047C046F0B5CE464746150400
:107AF0002D0C2E0080B50704140C3F0C9946030C86
:107B00007E435D43674363437F19340CE4199C460D
:107B1000A54203D980235B029846C4444B46514397
:107B200043433604360C250C24046544A419591823
:107B3000491920000CBC90469946F0BD10B50023B1
:107B4000002802D000F0EEF8431C180010BDC0461B
:107B5000F0B557464E464546DE46E0B5040083B0D4
:107B60000D00924699468B422FD82CD0494650465C
:107B700000F0CCF829000600200000F0C7F8331A06
:107B80009846203B9B4600D574E053465A469340A6
:107B90001F005346424693401E00AF4229D826D0CC
:107BA0005B46A41BBD41002B00DA79E000220023D4
:107BB0000092019301235A469340019301234246C8
:107BC0009340009319E08242D0D900220023009212
:107BD00001930C9B002B01D01C605D600098019903
:107BE00003B03CBC90469946A246AB46F0BDA342CA
:107BF000D6D900220023009201934346002BE8D0FF
:107C0000FB0772081A4346467B080EE0AB4201D1DF
:107C1000A2420CD8A41A9D41012024196D410021D3
:107C2000013E24184D41002E06D0AB42EED9013E54
:107C300024196D41002EF8D15B4600980199001976
:107C40006941002B22DB2B005A46D3402A004446D0
:107C5000E2401C005B461500002B2CDB26009E40FA
:107C6000330026004746BE403200801A99410090FA
:107C70000191AEE7424620239B1A5246DA40414624
:107C800013004A468A4017001F4382E742462023DA
:107C90009B1A2A0046469A402300F3401343D5E737
:107CA0004246202300219B1A0022009101920122CA
:107CB000DA40019282E74246202326009B1ADE40EA
:107CC0002F00B446974066463B003343C9E7C046A1
:107CD0001C2101231B04984201D3000C10391B0AFC
:107CE000984201D3000A08391B09984201D30009C0
:107CF000043902A2105C40187047C0460403020217
:107D000001010101000000000000000010B5002981
:107D100003D1FFF7DDFF203002E0081CFFF7D8FF9A
:107D200010BDC046414208401C2101231B0498425B
:107D300001D3000C10391B0A984201D3000A0839FC
:107D40001B09984201D30009043902A2105C401AB1
:107D50007047C0461B1C1D1D1E1E1E1E1F1F1F1F01
:107D60001F1F1F1F70B500260C4D0D4C641BA41067
:107D7000A64209D1002600F051FA0A4D0A4C641BB4
:107D8000A410A64205D170BDB300EB589847013648
:107D9000EEE7B300EB5898470136F2E7288200007F
:107DA00028820000288200002C820000002310B5E9
:107DB0009A4200D110BDCC5CC4540133F8E710B531
:107DC000884202D98B18984208D300239A4207D0E0
:107DD000CC5CC4540133F9E78B5C8354013AFBD289
:107DE00010BD03008218934200D17047197001330F
:107DF000F9E700002E2E2F68616C2F696E636C7599
:107E000064652F68616C5F7764742E680000000001
:107E1000604D00008C4D0000A24D0000B84D0000E8
:107E2000CE4D0000D64D0000264F00002E4F000022
:107E3000364F00003E4F0000464F00004E4F0000FE
:107E40007E4F0000C64E0000864F0000F44F000039
:107E500034500000225100003E51000056510000F5
:107E6000645100007E510000865100000252000063
:107E7000FA51000018540000025200000A5200009B
:107E800012520000465200007A5200008A5200004E
:107E9000DE4D0000EE4D0000FE4D0000624E000081
:107EA000925200009A520000A2520000AA52000012
:107EB000B2520000E8520000F0520000E64D00000F
:107EC000F64D00008A5300007A53000082530000F0
:107ED000825200002C500000465100004E5100001C
:107EE0008E5100001854000018540000185400006F
:107EF00018540000185400001854000018540000D2
:107F00001854000018540000185400009253000048
:107F1000AA530000B2530000BA530000C25300003D
:107F2000CA530000D2530000DA530000E2530000AD
:107F3000EA530000185400001854000018540000C0
:107F40001854000018540000185400001854000081
:107F50001854000018540000185400001854000071
:107F60001854000018540000185400001854000061
:107F70001854000018540000F25300001854000078
:107F8000185400001854000010540000455A54655D
:107F900063680000455300002E2E2F68616C2F731C
:107FA00072632F68616C5F6164635F73796E632EC7
:107FB000630000002E2E2F68616C2F7372632F6890
:107FC000616C5F666C6173682E6300002E2E2F68F3
:107FD000616C2F7372632F68616C5F696F2E630031
:107FE0002E2E2F68616C2F7372632F68616C5F7423
:107FF000696D65722E6300002E2E2F68616C2F73E1
:1080000072632F68616C5F75736172745F617379FD
:108010006E632E63000000002E2E2F68616C2F759A
:1080200074696C732F7372632F7574696C735F6CF2
:108030006973742E630000002E2E2F68616C2F75FB
:1080400074696C732F7372632F7574696C735F72CC
:10805000696E676275666665722E630000020100D4
:1080600000000004000000000719000000000000EC
:1080700000000000000000002E2E2F68706C2F61A1
:1080800064632F68706C5F6164632E63000000009E
:1080900006000000160000002E2E2F68706C2F6561
:1080A00069632F68706C5F6569632E630000000070
:1080B0002E2E2F68706C2F6E766D6374726C2F6825
:1080C000706C5F6E766D6374726C2E6300000000DE
:1080D0002E2E2F68706C2F7274632F68706C5F7215
:1080E00074632E63000000000000000004001040D4
:1080F000400003002BF6000000000000000000001C
:10810000000000000000000000000000000000006F
:10811000000000000000000000000000000000005F
:10812000000000000000000000000000000000004F
:1081300000000000000000002E2E2F68706C2F73CE
:108140006572636F6D2F68706C5F736572636F6DBE
:108150002E6300002E2E2F68706C2F7764742F68AA
:10816000706C5F7764742E6300000000E67100009D
:10817000D6700000FC7000001C7100002A71000025
:1081800060710000000000002A7F00000500000070
:10819000FB6200000A000000A04D00000F0000007C
:1081A000523D000014000000C8300000190000001B
:1081B000102700001E0000007B1F000023000000AD
:1081C0008719000028000000D21400002D000000D4
:1081D0001411000032000000150E000037000000EE
:1081E000AD0B00003C000000BA0900005B7E206778
:1081F0006F746F20626F6F74207E5D005B2B202098
:10820000696E204170702020202B5D005B3D20694D
:108210006E204552524F5220203D5D00F8B5C046B9
:10822000F8BC08BC9E467047DD400000F8B5C0466B
:0C823000F8BC08BC9E467047B54000003A
:08823C0014F9FF7F01000000AE
:10824400FFFFFFFF08000000FF05000000FE010023
:0882540000FD0100007F002085
:020000021000EC
:10FD0000785634120200000000010000F0070000E5
:10FD1000400000000600010021436587FFFFFFFF50
:10FE0000F0DEBC9A00010000F00700004000000096
:10FE1000EFCD230106000100A9CBED0FFFFFFFFF8F
:020000020000FC
:020000042000DA
:107F00005B3F2020436F6D70696C6520203F5D00F2
:0400000300004000B9
:00000001FF
